:100000000C943E000C945B000C945B000C945B0021
:100010000C945B000C945B000C945B000C945B00F4
:100020000C945B000C945B000C945B000C945B00E4
:100030000C945B000C945B000C945B000C945B00D4
:100040000C945B000C945B000C945B000C945B00C4
:100050000C945B000C945B000C945B000C945B00B4
:100060000C945B000C945B000C945B000C945B00A4
:100070000C945B000C945B000C945B0011241FBE7D
:10008000CFEFD0E1DEBFCDBF12E0A0E0B1E0E0EE07
:10009000F2E002C005900D92A836B107D9F722E030
:1000A000A8E6B2E001C01D92A33CB207E1F70E94AE
:1000B00058010C946E010C940000811102C05098FC
:1000C000089524B148E050E0481B510981E090E0D8
:1000D00001C0880F4A95EAF78095822384B9089574
:1000E000811102C0509A089544B128E030E0281BE5
:1000F000310981E090E001C0880F2A95EAF7842B4E
:1001000084B9089529B186B139B190E0880F991F5B
:10011000331F3327331F832B207430E053E0220F2B
:10012000331F5A95E1F7822B932B80959095089574
:10013000599A80E18A95F1F700C05998089591E0A5
:100140004A9908C090E080916802882319F01092C3
:10015000680208959093680280E008950F931F93BA
:10016000CF93DF9301E010E002C0000F111F8A95CA
:10017000E2F7C8ECD0E083E08A95F1F700000E9436
:10018000820080239123892B21F02197A1F781E020
:1001900001C080E0DF91CF911F910F9108954D999B
:1001A00003C0E0E0F0E002C0EAE5F0E04C9903C0F3
:1001B00020E030E002C024EB30E0E050FF4F2E0F93
:1001C0003F1FF901E80FF11D808108954F925F9262
:1001D0006F927F928F929F92AF92BF92CF92DF9257
:1001E000EF92FF920F931F93CF93DF93712CF12C1B
:1001F000E12CCC24C394D12C662463948E2D0E94D0
:10020000700020E12A95F1F700C00E9482005C0195
:10021000C0E0D0E05C2E5F0CC6010C2E02C0880F3F
:10022000991F0A94E2F78A219B21052D10E0892B62
:10023000A1F0C80187599D4F4C01FC0140808C2FD3
:100240000E94AE00481668F4852D0E94CF0082B946
:100250000E949800F401608204C0F801E759FD4F44
:100260001082F801E759FD4F8081882311F077242F
:1002700073942196CA30D10569F6FAE0FF0E8E2DEF
:100280000E945D00E3942AE5F212B8CF872DDF913A
:10029000CF911F910F91FF90EF90DF90CF90BF9083
:1002A000AF909F908F907F906F905F904F90089548
:1002B0008FEF81B912B814B815B817B888B98AE0A9
:1002C0008AB984EC8BB90E94E6008823E1F30E948E
:1002D0009F008823C1F30E949800F5CFF894FFCFC8
:1002E000383435313233303639370C0D1C1D0B0E96
:1002F0002009082D300A507F3B2E2F504F3A3949A4
:100300004F4B4C2C2E4C4B383655594A484D4E4D80
:100310004E37355254464756421819341245134445
:100320001443151617330557065307580F1011328B
:1003300000511B41015A0203043138343531323344
:10034000303639370C0D1C1D0B0E2009082D300AD4
:10035000407F2B2E3F504F2A29495F5B5C3C3E4C2F
:100360004B282655594A485D5E4D4E272552544626
:1003700047564218192412451344144315161723DF
:100380000557065307580F10112200511B41015AFF
:1003900002030421383435313233303639370C0D0D
:1003A0001C1D0B0E2009082D300A507F3B2E2F10EC
:1003B0000F3A39090F0B0C2C2E0C0B383615190A75
:1003C000080D0E0D0E3735121406071602181934D3
:1003D000120513041403151617330517061307180F
:1003E0000F10113200111B01011A020304313834BD
:1003F00035313233303639370C0D1C1D0B0E2009C8
:10040000082D300A007F2B2E3F100F2A29091F1BB1
:100410001C3C3E0C0B282615190A081D1E0D0E2724
:1004200025121406071602181924120513041403C2
:10043000151617230517061307180F1011220011A0
:080440001B01011A0203042153
:00000001FF
